{
  "contractName": "KVTCrowdsale",
  "abi": [
    {
      "constant": true,
      "inputs": [],
      "name": "priceChangeRequester",
      "outputs": [
        {
          "name": "",
          "type": "address"
        }
      ],
      "payable": false,
      "stateMutability": "view",
      "type": "function"
    },
    {
      "constant": true,
      "inputs": [
        {
          "name": "_operator",
          "type": "address"
        },
        {
          "name": "_role",
          "type": "string"
        }
      ],
      "name": "checkRole",
      "outputs": [],
      "payable": false,
      "stateMutability": "view",
      "type": "function"
    },
    {
      "constant": true,
      "inputs": [],
      "name": "finalizationRequester",
      "outputs": [
        {
          "name": "",
          "type": "address"
        }
      ],
      "payable": false,
      "stateMutability": "view",
      "type": "function"
    },
    {
      "constant": true,
      "inputs": [],
      "name": "pendingFinalization",
      "outputs": [
        {
          "name": "",
          "type": "bool"
        }
      ],
      "payable": false,
      "stateMutability": "view",
      "type": "function"
    },
    {
      "constant": true,
      "inputs": [
        {
          "name": "_operator",
          "type": "address"
        },
        {
          "name": "_role",
          "type": "string"
        }
      ],
      "name": "hasRole",
      "outputs": [
        {
          "name": "",
          "type": "bool"
        }
      ],
      "payable": false,
      "stateMutability": "view",
      "type": "function"
    },
    {
      "constant": true,
      "inputs": [],
      "name": "rate",
      "outputs": [
        {
          "name": "",
          "type": "uint256"
        }
      ],
      "payable": false,
      "stateMutability": "view",
      "type": "function"
    },
    {
      "constant": true,
      "inputs": [],
      "name": "weiRaised",
      "outputs": [
        {
          "name": "",
          "type": "uint256"
        }
      ],
      "payable": false,
      "stateMutability": "view",
      "type": "function"
    },
    {
      "constant": true,
      "inputs": [],
      "name": "wallet",
      "outputs": [
        {
          "name": "",
          "type": "address"
        }
      ],
      "payable": false,
      "stateMutability": "view",
      "type": "function"
    },
    {
      "constant": false,
      "inputs": [],
      "name": "renounceOwnership",
      "outputs": [],
      "payable": false,
      "stateMutability": "nonpayable",
      "type": "function"
    },
    {
      "constant": true,
      "inputs": [],
      "name": "ADMIN_ROLE",
      "outputs": [
        {
          "name": "",
          "type": "string"
        }
      ],
      "payable": false,
      "stateMutability": "view",
      "type": "function"
    },
    {
      "constant": true,
      "inputs": [],
      "name": "isFinalized",
      "outputs": [
        {
          "name": "",
          "type": "bool"
        }
      ],
      "payable": false,
      "stateMutability": "view",
      "type": "function"
    },
    {
      "constant": true,
      "inputs": [],
      "name": "owner",
      "outputs": [
        {
          "name": "",
          "type": "address"
        }
      ],
      "payable": false,
      "stateMutability": "view",
      "type": "function"
    },
    {
      "constant": true,
      "inputs": [],
      "name": "pendingPriceChange",
      "outputs": [
        {
          "name": "",
          "type": "uint256"
        }
      ],
      "payable": false,
      "stateMutability": "view",
      "type": "function"
    },
    {
      "constant": true,
      "inputs": [],
      "name": "PURCHASER_ROLE",
      "outputs": [
        {
          "name": "",
          "type": "string"
        }
      ],
      "payable": false,
      "stateMutability": "view",
      "type": "function"
    },
    {
      "constant": false,
      "inputs": [
        {
          "name": "_newOwner",
          "type": "address"
        }
      ],
      "name": "transferOwnership",
      "outputs": [],
      "payable": false,
      "stateMutability": "nonpayable",
      "type": "function"
    },
    {
      "constant": true,
      "inputs": [],
      "name": "token",
      "outputs": [
        {
          "name": "",
          "type": "address"
        }
      ],
      "payable": false,
      "stateMutability": "view",
      "type": "function"
    },
    {
      "inputs": [
        {
          "name": "_rate",
          "type": "uint256"
        },
        {
          "name": "_wallet",
          "type": "address"
        },
        {
          "name": "_token",
          "type": "address"
        }
      ],
      "payable": false,
      "stateMutability": "nonpayable",
      "type": "constructor"
    },
    {
      "payable": true,
      "stateMutability": "payable",
      "type": "fallback"
    },
    {
      "anonymous": false,
      "inputs": [
        {
          "indexed": true,
          "name": "purchaser",
          "type": "address"
        },
        {
          "indexed": true,
          "name": "beneficiary",
          "type": "address"
        },
        {
          "indexed": false,
          "name": "value",
          "type": "uint256"
        },
        {
          "indexed": false,
          "name": "amount",
          "type": "uint256"
        }
      ],
      "name": "TokenPurchase",
      "type": "event"
    },
    {
      "anonymous": false,
      "inputs": [],
      "name": "Finalized",
      "type": "event"
    },
    {
      "anonymous": false,
      "inputs": [
        {
          "indexed": true,
          "name": "operator",
          "type": "address"
        },
        {
          "indexed": false,
          "name": "role",
          "type": "string"
        }
      ],
      "name": "RoleAdded",
      "type": "event"
    },
    {
      "anonymous": false,
      "inputs": [
        {
          "indexed": true,
          "name": "operator",
          "type": "address"
        },
        {
          "indexed": false,
          "name": "role",
          "type": "string"
        }
      ],
      "name": "RoleRemoved",
      "type": "event"
    },
    {
      "anonymous": false,
      "inputs": [
        {
          "indexed": true,
          "name": "previousOwner",
          "type": "address"
        }
      ],
      "name": "OwnershipRenounced",
      "type": "event"
    },
    {
      "anonymous": false,
      "inputs": [
        {
          "indexed": true,
          "name": "previousOwner",
          "type": "address"
        },
        {
          "indexed": true,
          "name": "newOwner",
          "type": "address"
        }
      ],
      "name": "OwnershipTransferred",
      "type": "event"
    },
    {
      "constant": false,
      "inputs": [
        {
          "name": "_beneficiary",
          "type": "address"
        }
      ],
      "name": "buyTokens",
      "outputs": [],
      "payable": true,
      "stateMutability": "payable",
      "type": "function"
    },
    {
      "constant": true,
      "inputs": [
        {
          "name": "_address",
          "type": "address"
        }
      ],
      "name": "isAdmin",
      "outputs": [
        {
          "name": "",
          "type": "bool"
        }
      ],
      "payable": false,
      "stateMutability": "view",
      "type": "function"
    },
    {
      "constant": false,
      "inputs": [
        {
          "name": "_newAdmin",
          "type": "address"
        }
      ],
      "name": "setAdmin",
      "outputs": [],
      "payable": false,
      "stateMutability": "nonpayable",
      "type": "function"
    },
    {
      "constant": false,
      "inputs": [
        {
          "name": "_oldAdmin",
          "type": "address"
        }
      ],
      "name": "removeAdmin",
      "outputs": [],
      "payable": false,
      "stateMutability": "nonpayable",
      "type": "function"
    },
    {
      "constant": true,
      "inputs": [
        {
          "name": "_address",
          "type": "address"
        }
      ],
      "name": "isPurchaser",
      "outputs": [
        {
          "name": "",
          "type": "bool"
        }
      ],
      "payable": false,
      "stateMutability": "view",
      "type": "function"
    },
    {
      "constant": false,
      "inputs": [
        {
          "name": "_newPurchaser",
          "type": "address"
        }
      ],
      "name": "setPurchaser",
      "outputs": [],
      "payable": false,
      "stateMutability": "nonpayable",
      "type": "function"
    },
    {
      "constant": false,
      "inputs": [
        {
          "name": "_priceChangeInWei",
          "type": "uint256"
        }
      ],
      "name": "requestPriceChange",
      "outputs": [],
      "payable": false,
      "stateMutability": "nonpayable",
      "type": "function"
    },
    {
      "constant": false,
      "inputs": [],
      "name": "approvePriceChange",
      "outputs": [],
      "payable": false,
      "stateMutability": "nonpayable",
      "type": "function"
    },
    {
      "constant": false,
      "inputs": [],
      "name": "requestFinalize",
      "outputs": [],
      "payable": false,
      "stateMutability": "nonpayable",
      "type": "function"
    },
    {
      "constant": false,
      "inputs": [],
      "name": "approveFinalize",
      "outputs": [],
      "payable": false,
      "stateMutability": "nonpayable",
      "type": "function"
    }
  ],
  "bytecode": "0x608060405260006006556000600760006101000a81548173ffffffffffffffffffffffffffffffffffffffff021916908373ffffffffffffffffffffffffffffffffffffffff1602179055506000600760146101000a81548160ff0219169083151502179055506000600760156101000a81548160ff0219169083151502179055506000600860006101000a81548173ffffffffffffffffffffffffffffffffffffffff021916908373ffffffffffffffffffffffffffffffffffffffff160217905550348015620000d057600080fd5b5060405160608062002725833981018060405281019080805190602001909291908051906020019092919080519060200190929190505050336000806101000a81548173ffffffffffffffffffffffffffffffffffffffff021916908373ffffffffffffffffffffffffffffffffffffffff160217905550600083111515620001c1576040517f08c379a000000000000000000000000000000000000000000000000000000000815260040180806020018281038252601b8152602001807f72617465206d7573742062652067726561746572207468616e2030000000000081525060200191505060405180910390fd5b600073ffffffffffffffffffffffffffffffffffffffff168273ffffffffffffffffffffffffffffffffffffffff161415151562000267576040517f08c379a00000000000000000000000000000000000000000000000000000000081526004018080602001828103825260198152602001807f77616c6c65742061646472657373206d7573742065786973740000000000000081525060200191505060405180910390fd5b600073ffffffffffffffffffffffffffffffffffffffff168173ffffffffffffffffffffffffffffffffffffffff16141515156200030d576040517f08c379a00000000000000000000000000000000000000000000000000000000081526004018080602001828103825260188152602001807f746f6b656e2061646472657373206d757374206578697374000000000000000081525060200191505060405180910390fd5b8260048190555081600360006101000a81548173ffffffffffffffffffffffffffffffffffffffff021916908373ffffffffffffffffffffffffffffffffffffffff16021790555080600260006101000a81548173ffffffffffffffffffffffffffffffffffffffff021916908373ffffffffffffffffffffffffffffffffffffffff160217905550620003e6336040805190810160405280600581526020017f41444d494e000000000000000000000000000000000000000000000000000000815250620003ef640100000000026401000000009004565b50505062000596565b6200047e826001836040518082805190602001908083835b6020831015156200042e578051825260208201915060208101905060208303925062000407565b6001836020036101000a0380198251168184511680821785525050505050509050019150509081526020016040518091039020620005386401000000000262002007179091906401000000009004565b8173ffffffffffffffffffffffffffffffffffffffff167fbfec83d64eaa953f2708271a023ab9ee82057f8f3578d548c1a4ba0b5b700489826040518080602001828103825283818151815260200191508051906020019080838360005b83811015620004f9578082015181840152602081019050620004dc565b50505050905090810190601f168015620005275780820380516001836020036101000a031916815260200191505b509250505060405180910390a25050565b60018260000160008373ffffffffffffffffffffffffffffffffffffffff1673ffffffffffffffffffffffffffffffffffffffff16815260200190815260200160002060006101000a81548160ff0219169083151502179055505050565b61217f80620005a66000396000f300608060405260043610610154576000357c0100000000000000000000000000000000000000000000000000000000900463ffffffff168063034b16041461015f5780630988ca8c146101b65780631785f53c1461023f57806317c362ec14610282578063214c5495146102d9578063217fe6c61461030857806324d7806c146103a95780632ad0695e146104045780632c4e722e1461041b5780634042b66f14610446578063521eb27314610471578063704b6c02146104c8578063715018a61461050b57806375016f7f1461052257806375b238fc146105395780638b037015146105c95780638d4e4083146105f65780638da5cb5b146106255780639a7661871461067c5780639c7f1f7614610693578063c11c4213146106d6578063c663b4a514610731578063ea3eb6361461075c578063ec8ac4d8146107ec578063f2fde38b14610822578063fc0c546a14610865575b61015d336108bc565b005b34801561016b57600080fd5b50610174610976565b604051808273ffffffffffffffffffffffffffffffffffffffff1673ffffffffffffffffffffffffffffffffffffffff16815260200191505060405180910390f35b3480156101c257600080fd5b5061023d600480360381019080803573ffffffffffffffffffffffffffffffffffffffff169060200190929190803590602001908201803590602001908080601f016020809104026020016040519081016040528093929190818152602001838380828437820191505050505050919291929050505061099c565b005b34801561024b57600080fd5b50610280600480360381019080803573ffffffffffffffffffffffffffffffffffffffff169060200190929190505050610a1d565b005b34801561028e57600080fd5b50610297610aba565b604051808273ffffffffffffffffffffffffffffffffffffffff1673ffffffffffffffffffffffffffffffffffffffff16815260200191505060405180910390f35b3480156102e557600080fd5b506102ee610ae0565b604051808215151515815260200191505060405180910390f35b34801561031457600080fd5b5061038f600480360381019080803573ffffffffffffffffffffffffffffffffffffffff169060200190929190803590602001908201803590602001908080601f0160208091040260200160405190810160405280939291908181526020018383808284378201915050505050509192919290505050610af3565b604051808215151515815260200191505060405180910390f35b3480156103b557600080fd5b506103ea600480360381019080803573ffffffffffffffffffffffffffffffffffffffff169060200190929190505050610b7a565b604051808215151515815260200191505060405180910390f35b34801561041057600080fd5b50610419610bc2565b005b34801561042757600080fd5b50610430610de5565b6040518082815260200191505060405180910390f35b34801561045257600080fd5b5061045b610deb565b6040518082815260200191505060405180910390f35b34801561047d57600080fd5b50610486610df1565b604051808273ffffffffffffffffffffffffffffffffffffffff1673ffffffffffffffffffffffffffffffffffffffff16815260200191505060405180910390f35b3480156104d457600080fd5b50610509600480360381019080803573ffffffffffffffffffffffffffffffffffffffff169060200190929190505050610e17565b005b34801561051757600080fd5b50610520610eb4565b005b34801561052e57600080fd5b50610537610fb6565b005b34801561054557600080fd5b5061054e6112a4565b6040518080602001828103825283818151815260200191508051906020019080838360005b8381101561058e578082015181840152602081019050610573565b50505050905090810190601f1680156105bb5780820380516001836020036101000a031916815260200191505b509250505060405180910390f35b3480156105d557600080fd5b506105f4600480360381019080803590602001909291905050506112dd565b005b34801561060257600080fd5b5061060b611369565b604051808215151515815260200191505060405180910390f35b34801561063157600080fd5b5061063a61137c565b604051808273ffffffffffffffffffffffffffffffffffffffff1673ffffffffffffffffffffffffffffffffffffffff16815260200191505060405180910390f35b34801561068857600080fd5b506106916113a1565b005b34801561069f57600080fd5b506106d4600480360381019080803573ffffffffffffffffffffffffffffffffffffffff1690602001909291905050506114eb565b005b3480156106e257600080fd5b50610717600480360381019080803573ffffffffffffffffffffffffffffffffffffffff16906020019092919050505061156e565b604051808215151515815260200191505060405180910390f35b34801561073d57600080fd5b506107466115b6565b6040518082815260200191505060405180910390f35b34801561076857600080fd5b506107716115bc565b6040518080602001828103825283818151815260200191508051906020019080838360005b838110156107b1578082015181840152602081019050610796565b50505050905090810190601f1680156107de5780820380516001836020036101000a031916815260200191505b509250505060405180910390f35b610820600480360381019080803573ffffffffffffffffffffffffffffffffffffffff1690602001909291905050506108bc565b005b34801561082e57600080fd5b50610863600480360381019080803573ffffffffffffffffffffffffffffffffffffffff1690602001909291905050506115f5565b005b34801561087157600080fd5b5061087a61165c565b604051808273ffffffffffffffffffffffffffffffffffffffff1673ffffffffffffffffffffffffffffffffffffffff16815260200191505060405180910390f35b6000803491506108cc8383611682565b6108d58261194e565b90506108ec8260055461196c90919063ffffffff16565b6005819055506108fc8382611988565b8273ffffffffffffffffffffffffffffffffffffffff163373ffffffffffffffffffffffffffffffffffffffff167f623b3804fa71d67900d064613da8f94b9617215ee90799290593e1745087ad188484604051808381526020018281526020019250505060405180910390a3610971611996565b505050565b600760009054906101000a900473ffffffffffffffffffffffffffffffffffffffff1681565b610a19826001836040518082805190602001908083835b6020831015156109d857805182526020820191506020810190506020830392506109b3565b6001836020036101000a0380198251168184511680821785525050505050509050019150509081526020016040518091039020611a0190919063ffffffff16565b5050565b6000809054906101000a900473ffffffffffffffffffffffffffffffffffffffff1673ffffffffffffffffffffffffffffffffffffffff163373ffffffffffffffffffffffffffffffffffffffff16141515610a7857600080fd5b610ab7816040805190810160405280600581526020017f41444d494e000000000000000000000000000000000000000000000000000000815250611a1a565b50565b600860009054906101000a900473ffffffffffffffffffffffffffffffffffffffff1681565b600760159054906101000a900460ff1681565b6000610b72836001846040518082805190602001908083835b602083101515610b315780518252602082019150602081019050602083039250610b0c565b6001836020036101000a0380198251168184511680821785525050505050509050019150509081526020016040518091039020611b4e90919063ffffffff16565b905092915050565b6000610bbb826040805190810160405280600581526020017f41444d494e000000000000000000000000000000000000000000000000000000815250610af3565b9050919050565b6040805190810160405280600581526020017f41444d494e000000000000000000000000000000000000000000000000000000815250610c02338261099c565b600760009054906101000a900473ffffffffffffffffffffffffffffffffffffffff1673ffffffffffffffffffffffffffffffffffffffff163373ffffffffffffffffffffffffffffffffffffffff1614151515610cee576040517f08c379a000000000000000000000000000000000000000000000000000000000815260040180806020018281038252602b8152602001807f746865207265717565737465722063616e6e6f7420617070726f76652061207081526020017f72696365206368616e676500000000000000000000000000000000000000000081525060400191505060405180910390fd5b600060065414151515610d8f576040517f08c379a00000000000000000000000000000000000000000000000000000000081526004018080602001828103825260218152602001807f746865207072696365206368616e6765206d757374206e6f74206265207a657281526020017f6f0000000000000000000000000000000000000000000000000000000000000081525060400191505060405180910390fd5b60065460048190555060006006819055506000600760006101000a81548173ffffffffffffffffffffffffffffffffffffffff021916908373ffffffffffffffffffffffffffffffffffffffff16021790555050565b60045481565b60055481565b600360009054906101000a900473ffffffffffffffffffffffffffffffffffffffff1681565b6000809054906101000a900473ffffffffffffffffffffffffffffffffffffffff1673ffffffffffffffffffffffffffffffffffffffff163373ffffffffffffffffffffffffffffffffffffffff16141515610e7257600080fd5b610eb1816040805190810160405280600581526020017f41444d494e000000000000000000000000000000000000000000000000000000815250611ba7565b50565b6000809054906101000a900473ffffffffffffffffffffffffffffffffffffffff1673ffffffffffffffffffffffffffffffffffffffff163373ffffffffffffffffffffffffffffffffffffffff16141515610f0f57600080fd5b6000809054906101000a900473ffffffffffffffffffffffffffffffffffffffff1673ffffffffffffffffffffffffffffffffffffffff167ff8df31144d9c2f0f6b59d69b8b98abd5459d07f2742c4df920b25aae33c6482060405160405180910390a260008060006101000a81548173ffffffffffffffffffffffffffffffffffffffff021916908373ffffffffffffffffffffffffffffffffffffffff160217905550565b6040805190810160405280600581526020017f41444d494e000000000000000000000000000000000000000000000000000000815250610ff6338261099c565b600760149054906101000a900460ff161515156110a1576040517f08c379a00000000000000000000000000000000000000000000000000000000081526004018080602001828103825260228152602001807f7468652063726f776473616c6520697320616c72656164792066696e616c697a81526020017f656400000000000000000000000000000000000000000000000000000000000081525060400191505060405180910390fd5b600760159054906101000a900460ff16151561114b576040517f08c379a00000000000000000000000000000000000000000000000000000000081526004018080602001828103825260318152602001807f7468652063726f776473616c652066696e616c697a6174696f6e20686173206e81526020017f6f74206265656e2072657175657374656400000000000000000000000000000081525060400191505060405180910390fd5b600860009054906101000a900473ffffffffffffffffffffffffffffffffffffffff1673ffffffffffffffffffffffffffffffffffffffff163373ffffffffffffffffffffffffffffffffffffffff1614151515611237576040517f08c379a00000000000000000000000000000000000000000000000000000000081526004018080602001828103825260328152602001807f7468652063726f776473616c652063616e6e6f742062652066696e616c697a6581526020017f642062792074686520726571756573746572000000000000000000000000000081525060400191505060405180910390fd5b61123f611cdb565b7f6823b073d48d6e3a7d385eeb601452d680e74bb46afe3255a7d778f3a9b1768160405160405180910390a16000600760156101000a81548160ff0219169083151502179055506001600760146101000a81548160ff02191690831515021790555050565b6040805190810160405280600581526020017f41444d494e00000000000000000000000000000000000000000000000000000081525081565b6040805190810160405280600581526020017f41444d494e00000000000000000000000000000000000000000000000000000081525061131d338261099c565b8160068190555033600760006101000a81548173ffffffffffffffffffffffffffffffffffffffff021916908373ffffffffffffffffffffffffffffffffffffffff1602179055505050565b600760149054906101000a900460ff1681565b6000809054906101000a900473ffffffffffffffffffffffffffffffffffffffff1681565b6040805190810160405280600581526020017f41444d494e0000000000000000000000000000000000000000000000000000008152506113e1338261099c565b600760149054906101000a900460ff1615151561148c576040517f08c379a00000000000000000000000000000000000000000000000000000000081526004018080602001828103825260228152602001807f7468652063726f776473616c6520697320616c72656164792066696e616c697a81526020017f656400000000000000000000000000000000000000000000000000000000000081525060400191505060405180910390fd5b6001600760156101000a81548160ff02191690831515021790555033600860006101000a81548173ffffffffffffffffffffffffffffffffffffffff021916908373ffffffffffffffffffffffffffffffffffffffff16021790555050565b6040805190810160405280600581526020017f41444d494e00000000000000000000000000000000000000000000000000000081525061152b338261099c565b61156a826040805190810160405280600981526020017f5055524348415345520000000000000000000000000000000000000000000000815250611ba7565b5050565b60006115af826040805190810160405280600981526020017f5055524348415345520000000000000000000000000000000000000000000000815250610af3565b9050919050565b60065481565b6040805190810160405280600981526020017f505552434841534552000000000000000000000000000000000000000000000081525081565b6000809054906101000a900473ffffffffffffffffffffffffffffffffffffffff1673ffffffffffffffffffffffffffffffffffffffff163373ffffffffffffffffffffffffffffffffffffffff1614151561165057600080fd5b61165981611e48565b50565b600260009054906101000a900473ffffffffffffffffffffffffffffffffffffffff1681565b600073ffffffffffffffffffffffffffffffffffffffff168273ffffffffffffffffffffffffffffffffffffffff161415151561174d576040517f08c379a000000000000000000000000000000000000000000000000000000000815260040180806020018281038252602a8152602001807f7468652062656e65666963696172792063616e6e6f7420626520746865207a6581526020017f726f20616464726573730000000000000000000000000000000000000000000081525060400191505060405180910390fd5b600081141515156117c6576040517f08c379a000000000000000000000000000000000000000000000000000000000815260040180806020018281038252601e8152602001807f74686520776569416d6f756e74206d757374206e6f74206265207a65726f000081525060200191505060405180910390fd5b611805826040805190810160405280600981526020017f5055524348415345520000000000000000000000000000000000000000000000815250610af3565b151561189f576040517f08c379a00000000000000000000000000000000000000000000000000000000081526004018080602001828103825260298152602001807f7468652062656e6566696369617279206d75737420626520612076616c69642081526020017f707572636861736572000000000000000000000000000000000000000000000081525060400191505060405180910390fd5b600760149054906101000a900460ff1615151561194a576040517f08c379a00000000000000000000000000000000000000000000000000000000081526004018080602001828103825260278152602001807f7468652063726f776473616c65206d757374206e6f742079657420626520666981526020017f6e616c697a65640000000000000000000000000000000000000000000000000081525060400191505060405180910390fd5b5050565b600061196560045483611f4290919063ffffffff16565b9050919050565b6000818301905082811015151561197f57fe5b80905092915050565b6119928282611f58565b5050565b600360009054906101000a900473ffffffffffffffffffffffffffffffffffffffff1673ffffffffffffffffffffffffffffffffffffffff166108fc349081150290604051600060405180830381858888f193505050501580156119fe573d6000803e3d6000fd5b50565b611a0b8282611b4e565b1515611a1657600080fd5b5050565b611a97826001836040518082805190602001908083835b602083101515611a565780518252602082019150602081019050602083039250611a31565b6001836020036101000a0380198251168184511680821785525050505050509050019150509081526020016040518091039020611fa990919063ffffffff16565b8173ffffffffffffffffffffffffffffffffffffffff167fd211483f91fc6eff862467f8de606587a30c8fc9981056f051b897a418df803a826040518080602001828103825283818151815260200191508051906020019080838360005b83811015611b10578082015181840152602081019050611af5565b50505050905090810190601f168015611b3d5780820380516001836020036101000a031916815260200191505b509250505060405180910390a25050565b60008260000160008373ffffffffffffffffffffffffffffffffffffffff1673ffffffffffffffffffffffffffffffffffffffff16815260200190815260200160002060009054906101000a900460ff16905092915050565b611c24826001836040518082805190602001908083835b602083101515611be35780518252602082019150602081019050602083039250611bbe565b6001836020036101000a038019825116818451168082178552505050505050905001915050908152602001604051809103902061200790919063ffffffff16565b8173ffffffffffffffffffffffffffffffffffffffff167fbfec83d64eaa953f2708271a023ab9ee82057f8f3578d548c1a4ba0b5b700489826040518080602001828103825283818151815260200191508051906020019080838360005b83811015611c9d578082015181840152602081019050611c82565b50505050905090810190601f168015611cca5780820380516001836020036101000a031916815260200191505b509250505060405180910390a25050565b6000600260009054906101000a900473ffffffffffffffffffffffffffffffffffffffff1673ffffffffffffffffffffffffffffffffffffffff166370a08231306040518263ffffffff167c0100000000000000000000000000000000000000000000000000000000028152600401808273ffffffffffffffffffffffffffffffffffffffff1673ffffffffffffffffffffffffffffffffffffffff168152602001915050602060405180830381600087803b158015611d9a57600080fd5b505af1158015611dae573d6000803e3d6000fd5b505050506040513d6020811015611dc457600080fd5b81019080805190602001909291905050509050611e456000809054906101000a900473ffffffffffffffffffffffffffffffffffffffff1682600260009054906101000a900473ffffffffffffffffffffffffffffffffffffffff1673ffffffffffffffffffffffffffffffffffffffff166120659092919063ffffffff16565b50565b600073ffffffffffffffffffffffffffffffffffffffff168173ffffffffffffffffffffffffffffffffffffffff1614151515611e8457600080fd5b8073ffffffffffffffffffffffffffffffffffffffff166000809054906101000a900473ffffffffffffffffffffffffffffffffffffffff1673ffffffffffffffffffffffffffffffffffffffff167f8be0079c531659141344cd1fd0a4f28419497f9722a3daafe3b4186f6b6457e060405160405180910390a3806000806101000a81548173ffffffffffffffffffffffffffffffffffffffff021916908373ffffffffffffffffffffffffffffffffffffffff16021790555050565b60008183811515611f4f57fe5b04905092915050565b611fa58282600260009054906101000a900473ffffffffffffffffffffffffffffffffffffffff1673ffffffffffffffffffffffffffffffffffffffff166120659092919063ffffffff16565b5050565b60008260000160008373ffffffffffffffffffffffffffffffffffffffff1673ffffffffffffffffffffffffffffffffffffffff16815260200190815260200160002060006101000a81548160ff0219169083151502179055505050565b60018260000160008373ffffffffffffffffffffffffffffffffffffffff1673ffffffffffffffffffffffffffffffffffffffff16815260200190815260200160002060006101000a81548160ff0219169083151502179055505050565b8273ffffffffffffffffffffffffffffffffffffffff1663a9059cbb83836040518363ffffffff167c0100000000000000000000000000000000000000000000000000000000028152600401808373ffffffffffffffffffffffffffffffffffffffff1673ffffffffffffffffffffffffffffffffffffffff16815260200182815260200192505050602060405180830381600087803b15801561210857600080fd5b505af115801561211c573d6000803e3d6000fd5b505050506040513d602081101561213257600080fd5b8101908080519060200190929190505050151561214e57600080fd5b5050505600a165627a7a7230582029e410a6df0b891a2a25168a09414f69f94221a2889c060097869949186b7f550029",
  "source": "pragma solidity ^0.4.24;\n\nimport \"openzeppelin-solidity/contracts/token/ERC20/ERC20.sol\";\nimport \"openzeppelin-solidity/contracts/math/SafeMath.sol\";\nimport \"openzeppelin-solidity/contracts/token/ERC20/SafeERC20.sol\";\nimport \"openzeppelin-solidity/contracts/ownership/Ownable.sol\";\nimport \"openzeppelin-solidity/contracts/ownership/rbac/RBAC.sol\";\n\n/**\n * @title Crowdsale\n * @dev Crowdsale is a base contract for managing a token crowdsale,\n * allowing investors to purchase tokens with ether. This contract implements\n * such functionality in its most fundamental form and can be extended to provide additional\n * functionality and/or custom behavior.\n * The external interface represents the basic interface for purchasing tokens, and conform\n * the base architecture for crowdsales. They are *not* intended to be modified / overriden.\n * The internal interface conforms the extensible and modifiable surface of crowdsales. Override\n * the methods to add functionality. Consider using 'super' where appropiate to concatenate\n * behavior.\n */\n\n// NB: Content from openzepplin-solidity/contracts/crowdsale/Crowdsale.sol\n// When inheriting Crowdsale, deployments became an issue with gas limits\ncontract KVTCrowdsale is Ownable, RBAC {\n  using SafeMath for uint256;\n  using SafeERC20 for ERC20;\n\n  // The token being sold\n  ERC20 public token;\n\n  // Address where funds are collected\n  address public wallet;\n\n  // How many wei required per token unit\n  uint256 public rate;\n\n  // Amount of wei raised\n  uint256 public weiRaised;\n\n  /**\n   * Event for token purchase logging\n   * @param purchaser who paid for the tokens\n   * @param beneficiary who got the tokens\n   * @param value weis paid for purchase\n   * @param amount amount of tokens purchased\n   */\n  event TokenPurchase(\n    address indexed purchaser,\n    address indexed beneficiary,\n    uint256 value,\n    uint256 amount\n  );\n\n  /**\n   * @param _rate Number of token units a buyer gets per wei\n   * @param _wallet Address where collected funds will be forwarded to\n   * @param _token Address of the token being sold\n   */\n  constructor(uint256 _rate, address _wallet, ERC20 _token) public {\n    require(_rate > 0, \"rate must be greater than 0\");\n    require(_wallet != address(0), \"wallet address must exist\");\n    require(_token != address(0), \"token address must exist\");\n\n    rate = _rate;\n    wallet = _wallet;\n    token = _token;\n\n    addRole(msg.sender, ADMIN_ROLE);\n  }\n\n  // -----------------------------------------\n  // Crowdsale external interface\n  // -----------------------------------------\n\n  /**\n   * @dev fallback function ***DO NOT OVERRIDE***\n   */\n  function () external payable {\n    buyTokens(msg.sender);\n  }\n\n  /**\n   * @dev low level token purchase ***DO NOT OVERRIDE***\n   * @param _beneficiary Address performing the token purchase\n   */\n  function buyTokens(address _beneficiary) public payable {\n\n    uint256 weiAmount = msg.value;\n    _preValidatePurchase(_beneficiary, weiAmount);\n\n    // calculate token amount to be created\n    uint256 tokens = _getTokenAmount(weiAmount);\n\n    // update state\n    weiRaised = weiRaised.add(weiAmount);\n\n    _processPurchase(_beneficiary, tokens);\n    emit TokenPurchase(\n      msg.sender,\n      _beneficiary,\n      weiAmount,\n      tokens\n    );\n\n    _forwardFunds();\n  }\n\n  // -----------------------------------------\n  // Internal interface (extensible)\n  // -----------------------------------------\n\n  /**\n   * @dev Source of tokens. Override this method to modify the way in which the crowdsale ultimately gets and sends its tokens.\n   * @param _beneficiary Address performing the token purchase\n   * @param _tokenAmount Number of tokens to be emitted\n   */\n  function _deliverTokens(\n    address _beneficiary,\n    uint256 _tokenAmount\n  )\n    internal\n  {\n    token.safeTransfer(_beneficiary, _tokenAmount);\n  }\n\n  /**\n   * @dev Executed when a purchase has been validated and is ready to be executed. Not necessarily emits/sends tokens.\n   * @param _beneficiary Address receiving the tokens\n   * @param _tokenAmount Number of tokens to be purchased\n   */\n  function _processPurchase(\n    address _beneficiary,\n    uint256 _tokenAmount\n  )\n    internal\n  {\n    _deliverTokens(_beneficiary, _tokenAmount);\n  }\n\n  /**\n   * @dev Determines how ETH is stored/forwarded on purchases.\n   */\n  function _forwardFunds() internal {\n    wallet.transfer(msg.value);\n  }\n\n  /* Custom Behaviour */\n  string public constant ADMIN_ROLE = \"ADMIN\";\n  string public constant PURCHASER_ROLE = \"PURCHASER\";\n\n  /**\n  * @dev Number of KVT calculated by dividing the wei provided, by the rate per KVT\n  * @param _weiAmount Value in wei to be converted into tokens\n  * @return Number of tokens that can be purchased with the specified _weiAmount\n  */\n  function _getTokenAmount(uint256 _weiAmount)\n    internal view returns (uint256)\n  {\n    return _weiAmount.div(rate);\n  }\n\n  /**\n  * @dev Validation of an incoming purchase. The purchaser must have the purchaser role\n  * @param _beneficiary Address performing the token purchase\n  * @param _weiAmount Value in wei involved in the purchase\n  */\n  function _preValidatePurchase(\n    address _beneficiary,\n    uint256 _weiAmount\n  )\n    internal view\n  {\n    require(_beneficiary != address(0), \"the beneficiary cannot be the zero address\");\n    require(_weiAmount != 0, \"the weiAmount must not be zero\");\n    require(hasRole(_beneficiary, PURCHASER_ROLE), \"the beneficiary must be a valid purchaser\");\n    require(!isFinalized, \"the crowdsale must not yet be finalized\");\n  }\n\n  /**\n  * @dev The KVT Crowdsale uses adminstrators to handle updating the rate\n  */\n  function isAdmin(address _address) public view returns (bool) {\n    return hasRole(_address, ADMIN_ROLE);\n  }\n\n  /**\n  * @dev Set an administrator as the owner, using Open Zepplin RBAC implementation\n  */\n  function setAdmin(address _newAdmin) public onlyOwner {\n    return addRole(_newAdmin, ADMIN_ROLE);\n  }\n\n  /**\n  * @dev Remove an administrator as the owner, using Open Zepplin RBAC implementation\n  */\n  function removeAdmin(address _oldAdmin) public onlyOwner {\n    return removeRole(_oldAdmin, ADMIN_ROLE);\n  }\n\n  /**\n  * @dev Purchasers must complete KYC before being able to participate in the public sale\n  */\n  function isPurchaser(address _address) public view returns (bool) {\n    return hasRole(_address, PURCHASER_ROLE);\n  }\n\n  /**\n  * @dev Add a purchaser to the contract\n  */\n  function setPurchaser(address _newPurchaser) public onlyRole(ADMIN_ROLE) {\n    return addRole(_newPurchaser, PURCHASER_ROLE);\n  }\n\n  /* Multi-Signature on Price Changes */\n  uint256 public pendingPriceChange = 0;\n  address public priceChangeRequester = address(0);\n\n  function requestPriceChange(uint _priceChangeInWei) public onlyRole(ADMIN_ROLE) {\n    pendingPriceChange = _priceChangeInWei;\n    priceChangeRequester = msg.sender;\n  }\n\n  function approvePriceChange() public onlyRole(ADMIN_ROLE) {\n    require(msg.sender != priceChangeRequester, \"the requester cannot approve a price change\");\n    require(pendingPriceChange != 0, \"the price change must not be zero\");\n    rate = pendingPriceChange;\n    pendingPriceChange = 0;\n    priceChangeRequester = address(0);\n  }\n\n  /* Crowdsale Finalization returns remaining KVT back to the owner */\n  bool public isFinalized = false;\n  bool public pendingFinalization = false;\n  address public finalizationRequester = address(0);\n\n  event Finalized();\n\n  /**\n  * @dev Approve the end of the crowdsale\n  */\n  function requestFinalize() public onlyRole(ADMIN_ROLE) {\n    require(!isFinalized, \"the crowdsale is already finalized\");\n    pendingFinalization = true;\n    finalizationRequester = msg.sender;\n  }\n\n  /**\n  * @dev Approve the end of the crowdsale\n  */\n  function approveFinalize() public onlyRole(ADMIN_ROLE) {\n    require(!isFinalized, \"the crowdsale is already finalized\");\n    require(pendingFinalization, \"the crowdsale finalization has not been requested\");\n    require(msg.sender != finalizationRequester, \"the crowdsale cannot be finalized by the requester\");\n\n    finalization();\n    emit Finalized();\n\n    pendingFinalization = false;\n    isFinalized = true;\n  }\n\n  /**\n  * @dev On finalization, remaining tokens are moved back to the owner\n  */\n  function finalization() internal {\n    uint256 remainingCrowdsaleBalance = token.balanceOf(this);\n    token.safeTransfer(owner, remainingCrowdsaleBalance);\n  }\n}\n",
  "sourcePath": "/home/jeff/Git/kvt/contracts/KVTCrowdsale.sol",
  "compiler": {
    "name": "solc",
    "version": "0.4.25+commit.59dbf8f1.Emscripten.clang"
  },
  "schemaVersion": "2.0.2",
  "updatedAt": "2019-02-18T04:38:48.659Z"
}